{
  "contractName": "ProofOfTimeTravel",
  "abi": [
    {
      "constant": true,
      "inputs": [
        {
          "name": "",
          "type": "uint256"
        }
      ],
      "name": "predictions",
      "outputs": [
        {
          "name": "predictor",
          "type": "address"
        },
        {
          "name": "predictedBlock",
          "type": "uint256"
        },
        {
          "name": "predictedHash",
          "type": "bytes32"
        },
        {
          "name": "creationBlock",
          "type": "uint256"
        },
        {
          "name": "won",
          "type": "bool"
        }
      ],
      "payable": false,
      "stateMutability": "view",
      "type": "function"
    },
    {
      "constant": true,
      "inputs": [
        {
          "name": "",
          "type": "uint256"
        }
      ],
      "name": "winningPredictionIndexes",
      "outputs": [
        {
          "name": "",
          "type": "uint256"
        }
      ],
      "payable": false,
      "stateMutability": "view",
      "type": "function"
    },
    {
      "payable": true,
      "stateMutability": "payable",
      "type": "fallback"
    },
    {
      "anonymous": false,
      "inputs": [
        {
          "indexed": false,
          "name": "investor",
          "type": "address"
        },
        {
          "indexed": false,
          "name": "value",
          "type": "uint256"
        },
        {
          "indexed": false,
          "name": "blockNumber",
          "type": "uint256"
        }
      ],
      "name": "InvestmentEvent",
      "type": "event"
    },
    {
      "anonymous": false,
      "inputs": [
        {
          "indexed": false,
          "name": "predictor",
          "type": "address"
        },
        {
          "indexed": false,
          "name": "blockNumber",
          "type": "uint256"
        },
        {
          "indexed": false,
          "name": "predictionIndex",
          "type": "uint256"
        }
      ],
      "name": "PredictionEvent",
      "type": "event"
    },
    {
      "anonymous": false,
      "inputs": [
        {
          "indexed": false,
          "name": "predictor",
          "type": "address"
        },
        {
          "indexed": false,
          "name": "blockNumber",
          "type": "uint256"
        },
        {
          "indexed": false,
          "name": "predictionIndex",
          "type": "uint256"
        }
      ],
      "name": "FailedProofOfTimeTravelEvent",
      "type": "event"
    },
    {
      "anonymous": false,
      "inputs": [
        {
          "indexed": false,
          "name": "predictor",
          "type": "address"
        },
        {
          "indexed": false,
          "name": "blockNumber",
          "type": "uint256"
        },
        {
          "indexed": false,
          "name": "predictionIndex",
          "type": "uint256"
        }
      ],
      "name": "ProofOfTimeTravelEvent",
      "type": "event"
    },
    {
      "constant": false,
      "inputs": [
        {
          "name": "_block",
          "type": "uint256"
        },
        {
          "name": "_hash",
          "type": "bytes32"
        }
      ],
      "name": "makePrediction",
      "outputs": [],
      "payable": true,
      "stateMutability": "payable",
      "type": "function"
    },
    {
      "constant": false,
      "inputs": [
        {
          "name": "_index",
          "type": "uint256"
        }
      ],
      "name": "claimReward",
      "outputs": [],
      "payable": false,
      "stateMutability": "nonpayable",
      "type": "function"
    },
    {
      "constant": true,
      "inputs": [
        {
          "name": "_address",
          "type": "address"
        }
      ],
      "name": "getPendingPredictionByAddress",
      "outputs": [
        {
          "name": "",
          "type": "address"
        },
        {
          "name": "",
          "type": "uint256"
        },
        {
          "name": "",
          "type": "bytes32"
        },
        {
          "name": "",
          "type": "uint256"
        }
      ],
      "payable": false,
      "stateMutability": "view",
      "type": "function"
    },
    {
      "constant": true,
      "inputs": [
        {
          "name": "_address",
          "type": "address"
        }
      ],
      "name": "getPendingPredictionIndexByAddress",
      "outputs": [
        {
          "name": "",
          "type": "int256"
        }
      ],
      "payable": false,
      "stateMutability": "view",
      "type": "function"
    },
    {
      "constant": true,
      "inputs": [
        {
          "name": "_address",
          "type": "address"
        }
      ],
      "name": "getPredictionByAddressLength",
      "outputs": [
        {
          "name": "",
          "type": "uint256"
        }
      ],
      "payable": false,
      "stateMutability": "view",
      "type": "function"
    },
    {
      "constant": true,
      "inputs": [
        {
          "name": "_address",
          "type": "address"
        },
        {
          "name": "_index",
          "type": "uint256"
        }
      ],
      "name": "getPredictionByAddressByIndex",
      "outputs": [
        {
          "name": "",
          "type": "address"
        },
        {
          "name": "",
          "type": "uint256"
        },
        {
          "name": "",
          "type": "bytes32"
        },
        {
          "name": "",
          "type": "uint256"
        },
        {
          "name": "",
          "type": "bool"
        }
      ],
      "payable": false,
      "stateMutability": "view",
      "type": "function"
    },
    {
      "constant": true,
      "inputs": [
        {
          "name": "_index",
          "type": "uint256"
        }
      ],
      "name": "getPrediction",
      "outputs": [
        {
          "name": "",
          "type": "address"
        },
        {
          "name": "",
          "type": "uint256"
        },
        {
          "name": "",
          "type": "bytes32"
        },
        {
          "name": "",
          "type": "uint256"
        },
        {
          "name": "",
          "type": "bool"
        }
      ],
      "payable": false,
      "stateMutability": "view",
      "type": "function"
    },
    {
      "constant": true,
      "inputs": [],
      "name": "getPredictionsLength",
      "outputs": [
        {
          "name": "",
          "type": "uint256"
        }
      ],
      "payable": false,
      "stateMutability": "view",
      "type": "function"
    },
    {
      "constant": true,
      "inputs": [
        {
          "name": "_index",
          "type": "uint256"
        }
      ],
      "name": "getWinningPrediction",
      "outputs": [
        {
          "name": "",
          "type": "address"
        },
        {
          "name": "",
          "type": "uint256"
        },
        {
          "name": "",
          "type": "bytes32"
        },
        {
          "name": "",
          "type": "uint256"
        },
        {
          "name": "",
          "type": "bool"
        }
      ],
      "payable": false,
      "stateMutability": "view",
      "type": "function"
    },
    {
      "constant": true,
      "inputs": [],
      "name": "getWinningPredictionsLength",
      "outputs": [
        {
          "name": "",
          "type": "uint256"
        }
      ],
      "payable": false,
      "stateMutability": "view",
      "type": "function"
    },
    {
      "constant": true,
      "inputs": [],
      "name": "timeTravelProven",
      "outputs": [
        {
          "name": "",
          "type": "bool"
        }
      ],
      "payable": false,
      "stateMutability": "view",
      "type": "function"
    }
  ],
  "bytecode": "0x6060604052341561000f57600080fd5b610cba8061001e6000396000f3006060604052600436106100c35763ffffffff7c01000000000000000000000000000000000000000000000000000000006000350416624fbbb0811461011e57806310d522471461016f57806318f1bf60146101945780632cdb4804146101b357806341aefedf146101c9578063517a430e146101e85780635ddea1f1146101fe578063773bc51014610220578063a2970d3c14610233578063ae169a5014610288578063dc224a86146102a0578063e479cbd1146102ae578063fe83bece146102d5575b7f28ca5a1c6b28f6e4d6fcb7fb9c69939ed81bfafb4bc2f8437061cc541013d1f33334436040518084600160a060020a0316600160a060020a03168152602001838152602001828152602001935050505060405180910390a1005b341561012957600080fd5b6101346004356102eb565b604051600160a060020a03909516855260208501939093526040808501929092526060840152901515608083015260a0909101905180910390f35b341561017a57600080fd5b610182610337565b60405190815260200160405180910390f35b341561019f57600080fd5b610182600160a060020a036004351661033e565b34156101be57600080fd5b6101346004356103f2565b34156101d457600080fd5b610182600160a060020a03600435166104a9565b34156101f357600080fd5b61018260043561056e565b341561020957600080fd5b610134600160a060020a036004351660243561058d565b341561022b57600080fd5b610182610702565b341561023e57600080fd5b610252600160a060020a0360043516610708565b604051600160a060020a039094168452602084019290925260408084019190915260608301919091526080909101905180910390f35b341561029357600080fd5b61029e6004356107b4565b005b61029e600435602435610962565b34156102b957600080fd5b6102c1610afa565b604051901515815260200160405180910390f35b34156102e057600080fd5b610134600435610b7d565b60008054829081106102f957fe5b600091825260209091206005909102018054600182015460028301546003840154600490940154600160a060020a0390931694509092909160ff1685565b6000545b90565b600080600061034b610b9b565b600091505b6000548210156103e957600080548390811061036857fe5b906000526020600020906005020160a060405190810160409081528254600160a060020a039081168352600184015460208401526002840154918301919091526003830154606083015260049092015460ff1615156080820152915085168151600160a060020a031614156103de578260010192505b600190910190610350565b50909392505050565b6000806000806000610402610b9b565b600060018881548110151561041357fe5b6000918252602090912001548154811061042957fe5b906000526020600020906005020160a060405190810160409081528254600160a060020a03168252600183015460208301526002830154908201526003820154606082015260049091015460ff1615156080820152905080518160200151826040015183606001518460800151939b929a50909850965090945092505050565b6000806104b4610b9b565b600091505b6000548210156105615760008054839081106104d157fe5b906000526020600020906005020160a060405190810160409081528254600160a060020a039081168352600184015460208401526002840154918301919091526003830154606083015260049092015460ff1615156080820152915084168151600160a060020a031614801561054957508060800151155b1561055657819250610567565b6001909101906104b9565b60001992505b5050919050565b600180548290811061057c57fe5b600091825260209091200154905081565b60008060008060008060006105a0610b9b565b600091505b6000548210156106f05760008054839081106105bd57fe5b906000526020600020906005020160a060405190810160409081528254600160a060020a039081168352600184015460208401526002840154918301919091526003830154606083015260049092015460ff161515608082015291508a168151600160a060020a031614156106e557888314156106de5730600160a060020a031663fe83bece83600060405160a001526040517c010000000000000000000000000000000000000000000000000000000063ffffffff8416028152600481019190915260240160a060405180830381600087803b151561069c57600080fd5b6102c65a03f115156106ad57600080fd5b50505060405180519060200180519060200180519060200180519060200180519050975097509750975097506106f5565b8260010192505b6001909101906105a5565b600080fd5b5050509295509295909350565b60015490565b6000806000806000610718610b9b565b610721876104a9565b915060001982146107ab57600080548390811061073a57fe5b906000526020600020906005020160a060405190810160409081528254600160a060020a03168252600183015460208301526002830154908201526003820154606082015260049091015460ff16151560808201529050805181602001518260400151836060015195509550955095505b50509193509193565b6107bc610b9b565b60008054839081106107ca57fe5b906000526020600020906005020160a060405190810160409081528254600160a060020a03168252600183015460208301526002830154908201526003820154606082015260049091015460ff161515608082019081529091505115801561083a57508060400151602082015140145b156109035760016080820181905280548082016108578382610bc9565b5060009182526020909120018290558051600160a060020a03166108fc30600160a060020a0316319081150290604051600060405180830381858888f1935050505015156108a457600080fd5b7f62c01dc885412e25d14438265741733605c38b79b18c938f7faff04b49d00438815143846040518084600160a060020a0316600160a060020a03168152602001838152602001828152602001935050505060405180910390a161095e565b7f5f53fddd344d217f889a476085cc659bc21d5d5c43edf2d105bb9ec965ef2361815143846040518084600160a060020a0316600160a060020a03168152602001838152602001828152602001935050505060405180910390a15b5050565b8143811161096f57600080fd5b66038d7ea4c6800034101561098357600080fd5b60008054600181016109958382610bf2565b9160005260206000209060050201600060a06040519081016040908152600160a060020a0333168252602082018890528101869052436060820152600060808201529190508151815473ffffffffffffffffffffffffffffffffffffffff1916600160a060020a03919091161781556020820151816001015560408201516002820155606082015181600301556080820151600491909101805460ff191691151591909117905550506000547fb67f19c3fd83a95106e652fb84be57428788a3cc767b4df9e79d1906df3dbb2a90339043906040518084600160a060020a0316600160a060020a03168152602001838152602001828152602001935050505060405180910390a17f28ca5a1c6b28f6e4d6fcb7fb9c69939ed81bfafb4bc2f8437061cc541013d1f33334436040518084600160a060020a0316600160a060020a03168152602001838152602001828152602001935050505060405180910390a1505050565b60008030600160a060020a031663773bc5106000604051602001526040518163ffffffff167c0100000000000000000000000000000000000000000000000000000000028152600401602060405180830381600087803b1515610b5c57600080fd5b6102c65a03f11515610b6d57600080fd5b5050506040518051905011905090565b6000806000806000610b8d610b9b565b600080548890811061042957fe5b60a0604051908101604090815260008083526020830181905290820181905260608201819052608082015290565b815481835581811511610bed57600083815260209020610bed918101908301610c1e565b505050565b815481835581811511610bed57600502816005028360005260206000209182019101610bed9190610c3c565b61033b91905b80821115610c385760008155600101610c24565b5090565b61033b91905b80821115610c3857805473ffffffffffffffffffffffffffffffffffffffff1916815560006001820181905560028201819055600382015560048101805460ff19169055600501610c425600a165627a7a723058203a62f1368d6b8d6d2151992feacee819caa8bf7d57dc0d5882be7bcb636be0380029",
  "source": "pragma solidity ^0.4.17;\n\ncontract ProofOfTimeTravel {\n\n    event InvestmentEvent(address investor, uint value, uint blockNumber);\n    event PredictionEvent(address predictor, uint blockNumber, uint predictionIndex);\n    event FailedProofOfTimeTravelEvent(address predictor, uint blockNumber, uint predictionIndex);\n    event ProofOfTimeTravelEvent(address predictor, uint blockNumber, uint predictionIndex);\n \n    struct Prediction {\n        address predictor;\n        uint predictedBlock;\n        bytes32 predictedHash;\n        uint creationBlock;\n        bool won;\n    }\n\n    Prediction[] public predictions;\n    uint[] public winningPredictionIndexes;\n\n    modifier blockIsInfuture(uint _block) {\n        require(_block > block.number);\n        _;\n    }\n    \n    modifier validValue() {\n        require(msg.value >= 0.001 ether);\n        _;\n    }\n\n    // function ProofOfTimeTravel() public {}\n\n    function() public payable {\n        InvestmentEvent(msg.sender, msg.value, block.number);\n    }\n\n    function makePrediction(uint _block, bytes32 _hash) \n    blockIsInfuture(_block)\n    validValue\n    payable\n    public \n    {\n        predictions.push(Prediction(msg.sender, _block, _hash, block.number, false));\n        PredictionEvent(msg.sender, block.number, predictions.length);\n        InvestmentEvent(msg.sender, msg.value, block.number);\n    }\n\n    function claimReward(uint _index) public {\n        Prediction memory prediction = predictions[uint(_index)];\n\n        if (!prediction.won && block.blockhash(prediction.predictedBlock) == prediction.predictedHash) {\n            prediction.won = true;\n            winningPredictionIndexes.push(_index);\n            prediction.predictor.transfer(this.balance);\n            ProofOfTimeTravelEvent(prediction.predictor, block.number, _index);\n        } else {\n            FailedProofOfTimeTravelEvent(prediction.predictor, block.number, _index);\n\n        }\n    }\n    \n    function getPendingPredictionByAddress(address _address) public view returns(address, uint, bytes32, uint) {\n        int index = getPendingPredictionIndexByAddress(_address);\n        if (index != -1) {\n            Prediction memory prediction = predictions[uint(index)];\n            return(prediction.predictor, prediction.predictedBlock, prediction.predictedHash, prediction.creationBlock);\n        }\n    }\n    \n    function getPendingPredictionIndexByAddress(address _address) public view returns(int) {\n        for (uint index = 0; index < predictions.length; index++) {\n            Prediction memory prediction = predictions[index];\n            if (prediction.predictor == _address && !prediction.won) {\n                return int(index);\n            }\n        }\n        return -1;\n    }\n\n    function getPredictionByAddressLength(address _address) public view returns(uint) {\n        uint count;\n        for (uint index = 0; index < predictions.length; index++) {\n            Prediction memory prediction = predictions[index];\n            if (prediction.predictor == _address) {\n                ++count;\n            }\n        }\n        return count;\n    }\n\n    function getPredictionByAddressByIndex(address _address, uint _index) public view returns(address, uint, bytes32, uint, bool) {\n        uint count;\n        for (uint index = 0; index < predictions.length; index++) {\n            Prediction memory prediction = predictions[index];\n            if (prediction.predictor == _address ) {\n                if (count == _index) {\n                    return this.getPrediction(index);\n                }\n                ++count;\n            }\n        }\n        revert();\n    }\n    \n    function getPrediction(uint _index) public view returns(address, uint, bytes32, uint, bool) {\n        Prediction memory prediction = predictions[_index];\n        return(prediction.predictor, prediction.predictedBlock, prediction.predictedHash, prediction.creationBlock, prediction.won);\n    }\n\n    function getPredictionsLength() public view returns(uint) {\n        return predictions.length;\n    }\n\n    function getWinningPrediction(uint _index) public view returns(address, uint, bytes32, uint, bool) {\n        Prediction memory prediction = predictions[winningPredictionIndexes[_index]];\n        return(prediction.predictor, prediction.predictedBlock, prediction.predictedHash, prediction.creationBlock, prediction.won);\n    }\n\n    function getWinningPredictionsLength() public view returns(uint) {\n        return winningPredictionIndexes.length;\n    }\n\n    function timeTravelProven() public view returns(bool) {\n        return this.getWinningPredictionsLength() > 0;\n    }\n}\n",
  "sourcePath": "/Volumes/code/projects/ProofOfTimeTravel/contracts/ProofOfTimeTravel.sol",
  "compiler": {
    "name": "solc",
    "version": "0.4.19+commit.c4cbbb05.Emscripten.clang"
  },
  "schemaVersion": "2.0.0",
  "updatedAt": "2018-03-27T12:21:18.802Z"
}